{
  "_format": "hh-sol-artifact-1",
  "contractName": "DriverNFT",
  "sourceName": "contracts/mint.sol",
  "abi": [
    {
      "inputs": [
        {
          "internalType": "address",
          "name": "_mintAddress",
          "type": "address"
        }
      ],
      "stateMutability": "nonpayable",
      "type": "constructor"
    },
    {
      "anonymous": false,
      "inputs": [
        {
          "indexed": true,
          "internalType": "address",
          "name": "owner",
          "type": "address"
        },
        {
          "indexed": true,
          "internalType": "address",
          "name": "approved",
          "type": "address"
        },
        {
          "indexed": true,
          "internalType": "uint256",
          "name": "tokenId",
          "type": "uint256"
        }
      ],
      "name": "Approval",
      "type": "event"
    },
    {
      "anonymous": false,
      "inputs": [
        {
          "indexed": true,
          "internalType": "address",
          "name": "owner",
          "type": "address"
        },
        {
          "indexed": true,
          "internalType": "address",
          "name": "operator",
          "type": "address"
        },
        {
          "indexed": false,
          "internalType": "bool",
          "name": "approved",
          "type": "bool"
        }
      ],
      "name": "ApprovalForAll",
      "type": "event"
    },
    {
      "anonymous": false,
      "inputs": [
        {
          "indexed": true,
          "internalType": "address",
          "name": "previousOwner",
          "type": "address"
        },
        {
          "indexed": true,
          "internalType": "address",
          "name": "newOwner",
          "type": "address"
        }
      ],
      "name": "OwnershipTransferred",
      "type": "event"
    },
    {
      "anonymous": false,
      "inputs": [
        {
          "indexed": true,
          "internalType": "address",
          "name": "from",
          "type": "address"
        },
        {
          "indexed": true,
          "internalType": "address",
          "name": "to",
          "type": "address"
        },
        {
          "indexed": true,
          "internalType": "uint256",
          "name": "tokenId",
          "type": "uint256"
        }
      ],
      "name": "Transfer",
      "type": "event"
    },
    {
      "inputs": [],
      "name": "MINT_ADDRESS",
      "outputs": [
        {
          "internalType": "address",
          "name": "",
          "type": "address"
        }
      ],
      "stateMutability": "view",
      "type": "function"
    },
    {
      "inputs": [
        {
          "internalType": "address",
          "name": "to",
          "type": "address"
        },
        {
          "internalType": "uint256",
          "name": "tokenId",
          "type": "uint256"
        }
      ],
      "name": "approve",
      "outputs": [],
      "stateMutability": "nonpayable",
      "type": "function"
    },
    {
      "inputs": [
        {
          "internalType": "address",
          "name": "owner",
          "type": "address"
        }
      ],
      "name": "balanceOf",
      "outputs": [
        {
          "internalType": "uint256",
          "name": "",
          "type": "uint256"
        }
      ],
      "stateMutability": "view",
      "type": "function"
    },
    {
      "inputs": [
        {
          "internalType": "uint256",
          "name": "tokenId",
          "type": "uint256"
        }
      ],
      "name": "getApproved",
      "outputs": [
        {
          "internalType": "address",
          "name": "",
          "type": "address"
        }
      ],
      "stateMutability": "view",
      "type": "function"
    },
    {
      "inputs": [
        {
          "internalType": "address",
          "name": "owner",
          "type": "address"
        },
        {
          "internalType": "address",
          "name": "operator",
          "type": "address"
        }
      ],
      "name": "isApprovedForAll",
      "outputs": [
        {
          "internalType": "bool",
          "name": "",
          "type": "bool"
        }
      ],
      "stateMutability": "view",
      "type": "function"
    },
    {
      "inputs": [
        {
          "internalType": "string",
          "name": "",
          "type": "string"
        }
      ],
      "name": "licenseToTokenId",
      "outputs": [
        {
          "internalType": "uint256",
          "name": "",
          "type": "uint256"
        }
      ],
      "stateMutability": "view",
      "type": "function"
    },
    {
      "inputs": [
        {
          "internalType": "address",
          "name": "to",
          "type": "address"
        },
        {
          "internalType": "string",
          "name": "_license",
          "type": "string"
        },
        {
          "internalType": "uint256",
          "name": "_tokenId",
          "type": "uint256"
        }
      ],
      "name": "mint",
      "outputs": [],
      "stateMutability": "nonpayable",
      "type": "function"
    },
    {
      "inputs": [],
      "name": "name",
      "outputs": [
        {
          "internalType": "string",
          "name": "",
          "type": "string"
        }
      ],
      "stateMutability": "view",
      "type": "function"
    },
    {
      "inputs": [],
      "name": "owner",
      "outputs": [
        {
          "internalType": "address",
          "name": "",
          "type": "address"
        }
      ],
      "stateMutability": "view",
      "type": "function"
    },
    {
      "inputs": [
        {
          "internalType": "uint256",
          "name": "tokenId",
          "type": "uint256"
        }
      ],
      "name": "ownerOf",
      "outputs": [
        {
          "internalType": "address",
          "name": "",
          "type": "address"
        }
      ],
      "stateMutability": "view",
      "type": "function"
    },
    {
      "inputs": [],
      "name": "renounceOwnership",
      "outputs": [],
      "stateMutability": "nonpayable",
      "type": "function"
    },
    {
      "inputs": [
        {
          "internalType": "address",
          "name": "from",
          "type": "address"
        },
        {
          "internalType": "address",
          "name": "to",
          "type": "address"
        },
        {
          "internalType": "uint256",
          "name": "tokenId",
          "type": "uint256"
        }
      ],
      "name": "safeTransferFrom",
      "outputs": [],
      "stateMutability": "nonpayable",
      "type": "function"
    },
    {
      "inputs": [
        {
          "internalType": "address",
          "name": "from",
          "type": "address"
        },
        {
          "internalType": "address",
          "name": "to",
          "type": "address"
        },
        {
          "internalType": "uint256",
          "name": "tokenId",
          "type": "uint256"
        },
        {
          "internalType": "bytes",
          "name": "data",
          "type": "bytes"
        }
      ],
      "name": "safeTransferFrom",
      "outputs": [],
      "stateMutability": "nonpayable",
      "type": "function"
    },
    {
      "inputs": [
        {
          "internalType": "address",
          "name": "operator",
          "type": "address"
        },
        {
          "internalType": "bool",
          "name": "approved",
          "type": "bool"
        }
      ],
      "name": "setApprovalForAll",
      "outputs": [],
      "stateMutability": "nonpayable",
      "type": "function"
    },
    {
      "inputs": [
        {
          "internalType": "bytes4",
          "name": "interfaceId",
          "type": "bytes4"
        }
      ],
      "name": "supportsInterface",
      "outputs": [
        {
          "internalType": "bool",
          "name": "",
          "type": "bool"
        }
      ],
      "stateMutability": "view",
      "type": "function"
    },
    {
      "inputs": [],
      "name": "symbol",
      "outputs": [
        {
          "internalType": "string",
          "name": "",
          "type": "string"
        }
      ],
      "stateMutability": "view",
      "type": "function"
    },
    {
      "inputs": [
        {
          "internalType": "string",
          "name": "_license",
          "type": "string"
        }
      ],
      "name": "tokenOfLicense",
      "outputs": [
        {
          "internalType": "uint256",
          "name": "",
          "type": "uint256"
        }
      ],
      "stateMutability": "view",
      "type": "function"
    },
    {
      "inputs": [
        {
          "internalType": "uint256",
          "name": "tokenId",
          "type": "uint256"
        }
      ],
      "name": "tokenURI",
      "outputs": [
        {
          "internalType": "string",
          "name": "",
          "type": "string"
        }
      ],
      "stateMutability": "view",
      "type": "function"
    },
    {
      "inputs": [
        {
          "internalType": "address",
          "name": "from",
          "type": "address"
        },
        {
          "internalType": "address",
          "name": "to",
          "type": "address"
        },
        {
          "internalType": "uint256",
          "name": "tokenId",
          "type": "uint256"
        }
      ],
      "name": "transferFrom",
      "outputs": [],
      "stateMutability": "nonpayable",
      "type": "function"
    },
    {
      "inputs": [
        {
          "internalType": "address",
          "name": "newOwner",
          "type": "address"
        }
      ],
      "name": "transferOwnership",
      "outputs": [],
      "stateMutability": "nonpayable",
      "type": "function"
    }
  ],
  "bytecode": "0x60a06040523480156200001157600080fd5b50604051620030ae380380620030ae83398181016040528101906200003791906200031a565b6040518060400160405280600981526020017f4472697665724e465400000000000000000000000000000000000000000000008152506040518060400160405280600481526020017f444e4654000000000000000000000000000000000000000000000000000000008152508160009080519060200190620000bb92919062000200565b508060019080519060200190620000d492919062000200565b505050620000f7620000eb6200013260201b60201c565b6200013a60201b60201c565b8073ffffffffffffffffffffffffffffffffffffffff1660808173ffffffffffffffffffffffffffffffffffffffff168152505050620003b1565b600033905090565b6000600660009054906101000a900473ffffffffffffffffffffffffffffffffffffffff16905081600660006101000a81548173ffffffffffffffffffffffffffffffffffffffff021916908373ffffffffffffffffffffffffffffffffffffffff1602179055508173ffffffffffffffffffffffffffffffffffffffff168173ffffffffffffffffffffffffffffffffffffffff167f8be0079c531659141344cd1fd0a4f28419497f9722a3daafe3b4186f6b6457e060405160405180910390a35050565b8280546200020e906200037b565b90600052602060002090601f0160209004810192826200023257600085556200027e565b82601f106200024d57805160ff19168380011785556200027e565b828001600101855582156200027e579182015b828111156200027d57825182559160200191906001019062000260565b5b5090506200028d919062000291565b5090565b5b80821115620002ac57600081600090555060010162000292565b5090565b600080fd5b600073ffffffffffffffffffffffffffffffffffffffff82169050919050565b6000620002e282620002b5565b9050919050565b620002f481620002d5565b81146200030057600080fd5b50565b6000815190506200031481620002e9565b92915050565b600060208284031215620003335762000332620002b0565b5b6000620003438482850162000303565b91505092915050565b7f4e487b7100000000000000000000000000000000000000000000000000000000600052602260045260246000fd5b600060028204905060018216806200039457607f821691505b60208210811415620003ab57620003aa6200034c565b5b50919050565b608051612cda620003d46000396000818161074b0152610a1e0152612cda6000f3fe608060405234801561001057600080fd5b506004361061012c5760003560e01c80637ab7f00e116100ad578063ba7aef4311610071578063ba7aef431461032f578063c87b56dd1461034b578063e985e9c51461037b578063f2fde38b146103ab578063f5ec6819146103c75761012c565b80637ab7f00e1461028b5780638da5cb5b146102bb57806395d89b41146102d9578063a22cb465146102f7578063b88d4fde146103135761012c565b806342842e0e116100f457806342842e0e146101e7578063466c35fc146102035780636352211e1461022157806370a0823114610251578063715018a6146102815761012c565b806301ffc9a71461013157806306fdde0314610161578063081812fc1461017f578063095ea7b3146101af57806323b872dd146101cb575b600080fd5b61014b60048036038101906101469190611c86565b6103f7565b6040516101589190611cce565b60405180910390f35b6101696104d9565b6040516101769190611d82565b60405180910390f35b61019960048036038101906101949190611dda565b61056b565b6040516101a69190611e48565b60405180910390f35b6101c960048036038101906101c49190611e8f565b6105b1565b005b6101e560048036038101906101e09190611ecf565b6106c9565b005b61020160048036038101906101fc9190611ecf565b610729565b005b61020b610749565b6040516102189190611e48565b60405180910390f35b61023b60048036038101906102369190611dda565b61076d565b6040516102489190611e48565b60405180910390f35b61026b60048036038101906102669190611f22565b6107f4565b6040516102789190611f5e565b60405180910390f35b6102896108ac565b005b6102a560048036038101906102a091906120ae565b6108c0565b6040516102b29190611f5e565b60405180910390f35b6102c36108e8565b6040516102d09190611e48565b60405180910390f35b6102e1610912565b6040516102ee9190611d82565b60405180910390f35b610311600480360381019061030c9190612123565b6109a4565b005b61032d60048036038101906103289190612204565b6109ba565b005b61034960048036038101906103449190612287565b610a1c565b005b61036560048036038101906103609190611dda565b610b3d565b6040516103729190611d82565b60405180910390f35b610395600480360381019061039091906122f6565b610ba5565b6040516103a29190611cce565b60405180910390f35b6103c560048036038101906103c09190611f22565b610c39565b005b6103e160048036038101906103dc91906120ae565b610cbd565b6040516103ee9190611f5e565b60405180910390f35b60007f80ac58cd000000000000000000000000000000000000000000000000000000007bffffffffffffffffffffffffffffffffffffffffffffffffffffffff1916827bffffffffffffffffffffffffffffffffffffffffffffffffffffffff191614806104c257507f5b5e139f000000000000000000000000000000000000000000000000000000007bffffffffffffffffffffffffffffffffffffffffffffffffffffffff1916827bffffffffffffffffffffffffffffffffffffffffffffffffffffffff1916145b806104d257506104d182610ceb565b5b9050919050565b6060600080546104e890612365565b80601f016020809104026020016040519081016040528092919081815260200182805461051490612365565b80156105615780601f1061053657610100808354040283529160200191610561565b820191906000526020600020905b81548152906001019060200180831161054457829003601f168201915b5050505050905090565b600061057682610d55565b6004600083815260200190815260200160002060009054906101000a900473ffffffffffffffffffffffffffffffffffffffff169050919050565b60006105bc8261076d565b90508073ffffffffffffffffffffffffffffffffffffffff168373ffffffffffffffffffffffffffffffffffffffff16141561062d576040517f08c379a000000000000000000000000000000000000000000000000000000000815260040161062490612409565b60405180910390fd5b8073ffffffffffffffffffffffffffffffffffffffff1661064c610da0565b73ffffffffffffffffffffffffffffffffffffffff16148061067b575061067a81610675610da0565b610ba5565b5b6106ba576040517f08c379a00000000000000000000000000000000000000000000000000000000081526004016106b19061249b565b60405180910390fd5b6106c48383610da8565b505050565b6106da6106d4610da0565b82610e61565b610719576040517f08c379a00000000000000000000000000000000000000000000000000000000081526004016107109061252d565b60405180910390fd5b610724838383610ef6565b505050565b610744838383604051806020016040528060008152506109ba565b505050565b7f000000000000000000000000000000000000000000000000000000000000000081565b600080610779836111f0565b9050600073ffffffffffffffffffffffffffffffffffffffff168173ffffffffffffffffffffffffffffffffffffffff1614156107eb576040517f08c379a00000000000000000000000000000000000000000000000000000000081526004016107e290612599565b60405180910390fd5b80915050919050565b60008073ffffffffffffffffffffffffffffffffffffffff168273ffffffffffffffffffffffffffffffffffffffff161415610865576040517f08c379a000000000000000000000000000000000000000000000000000000000815260040161085c9061262b565b60405180910390fd5b600360008373ffffffffffffffffffffffffffffffffffffffff1673ffffffffffffffffffffffffffffffffffffffff168152602001908152602001600020549050919050565b6108b461122d565b6108be60006112ab565b565b60006007826040516108d29190612687565b9081526020016040518091039020549050919050565b6000600660009054906101000a900473ffffffffffffffffffffffffffffffffffffffff16905090565b60606001805461092190612365565b80601f016020809104026020016040519081016040528092919081815260200182805461094d90612365565b801561099a5780601f1061096f5761010080835404028352916020019161099a565b820191906000526020600020905b81548152906001019060200180831161097d57829003601f168201915b5050505050905090565b6109b66109af610da0565b8383611371565b5050565b6109cb6109c5610da0565b83610e61565b610a0a576040517f08c379a0000000000000000000000000000000000000000000000000000000008152600401610a019061252d565b60405180910390fd5b610a16848484846114de565b50505050565b7f000000000000000000000000000000000000000000000000000000000000000073ffffffffffffffffffffffffffffffffffffffff163373ffffffffffffffffffffffffffffffffffffffff1614610aaa576040517f08c379a0000000000000000000000000000000000000000000000000000000008152600401610aa1906126ea565b60405180910390fd5b6000600783604051610abc9190612687565b90815260200160405180910390205414610b0b576040517f08c379a0000000000000000000000000000000000000000000000000000000008152600401610b0290612756565b60405180910390fd5b610b15838261153a565b80600783604051610b269190612687565b908152602001604051809103902081905550505050565b6060610b4882610d55565b6000610b52611558565b90506000815111610b725760405180602001604052806000815250610b9d565b80610b7c8461156f565b604051602001610b8d929190612776565b6040516020818303038152906040525b915050919050565b6000600560008473ffffffffffffffffffffffffffffffffffffffff1673ffffffffffffffffffffffffffffffffffffffff16815260200190815260200160002060008373ffffffffffffffffffffffffffffffffffffffff1673ffffffffffffffffffffffffffffffffffffffff16815260200190815260200160002060009054906101000a900460ff16905092915050565b610c4161122d565b600073ffffffffffffffffffffffffffffffffffffffff168173ffffffffffffffffffffffffffffffffffffffff161415610cb1576040517f08c379a0000000000000000000000000000000000000000000000000000000008152600401610ca89061280c565b60405180910390fd5b610cba816112ab565b50565b6007818051602081018201805184825260208301602085012081835280955050505050506000915090505481565b60007f01ffc9a7000000000000000000000000000000000000000000000000000000007bffffffffffffffffffffffffffffffffffffffffffffffffffffffff1916827bffffffffffffffffffffffffffffffffffffffffffffffffffffffff1916149050919050565b610d5e81611647565b610d9d576040517f08c379a0000000000000000000000000000000000000000000000000000000008152600401610d9490612599565b60405180910390fd5b50565b600033905090565b816004600083815260200190815260200160002060006101000a81548173ffffffffffffffffffffffffffffffffffffffff021916908373ffffffffffffffffffffffffffffffffffffffff160217905550808273ffffffffffffffffffffffffffffffffffffffff16610e1b8361076d565b73ffffffffffffffffffffffffffffffffffffffff167f8c5be1e5ebec7d5bd14f71427d1e84f3dd0314c0f7b2291e5b200ac8c7c3b92560405160405180910390a45050565b600080610e6d8361076d565b90508073ffffffffffffffffffffffffffffffffffffffff168473ffffffffffffffffffffffffffffffffffffffff161480610eaf5750610eae8185610ba5565b5b80610eed57508373ffffffffffffffffffffffffffffffffffffffff16610ed58461056b565b73ffffffffffffffffffffffffffffffffffffffff16145b91505092915050565b8273ffffffffffffffffffffffffffffffffffffffff16610f168261076d565b73ffffffffffffffffffffffffffffffffffffffff1614610f6c576040517f08c379a0000000000000000000000000000000000000000000000000000000008152600401610f639061289e565b60405180910390fd5b600073ffffffffffffffffffffffffffffffffffffffff168273ffffffffffffffffffffffffffffffffffffffff161415610fdc576040517f08c379a0000000000000000000000000000000000000000000000000000000008152600401610fd390612930565b60405180910390fd5b610fe98383836001611688565b8273ffffffffffffffffffffffffffffffffffffffff166110098261076d565b73ffffffffffffffffffffffffffffffffffffffff161461105f576040517f08c379a00000000000000000000000000000000000000000000000000000000081526004016110569061289e565b60405180910390fd5b6004600082815260200190815260200160002060006101000a81549073ffffffffffffffffffffffffffffffffffffffff02191690556001600360008573ffffffffffffffffffffffffffffffffffffffff1673ffffffffffffffffffffffffffffffffffffffff168152602001908152602001600020600082825403925050819055506001600360008473ffffffffffffffffffffffffffffffffffffffff1673ffffffffffffffffffffffffffffffffffffffff16815260200190815260200160002060008282540192505081905550816002600083815260200190815260200160002060006101000a81548173ffffffffffffffffffffffffffffffffffffffff021916908373ffffffffffffffffffffffffffffffffffffffff160217905550808273ffffffffffffffffffffffffffffffffffffffff168473ffffffffffffffffffffffffffffffffffffffff167fddf252ad1be2c89b69c2b068fc378daa952ba7f163c4a11628f55a4df523b3ef60405160405180910390a46111eb838383600161168e565b505050565b60006002600083815260200190815260200160002060009054906101000a900473ffffffffffffffffffffffffffffffffffffffff169050919050565b611235610da0565b73ffffffffffffffffffffffffffffffffffffffff166112536108e8565b73ffffffffffffffffffffffffffffffffffffffff16146112a9576040517f08c379a00000000000000000000000000000000000000000000000000000000081526004016112a09061299c565b60405180910390fd5b565b6000600660009054906101000a900473ffffffffffffffffffffffffffffffffffffffff16905081600660006101000a81548173ffffffffffffffffffffffffffffffffffffffff021916908373ffffffffffffffffffffffffffffffffffffffff1602179055508173ffffffffffffffffffffffffffffffffffffffff168173ffffffffffffffffffffffffffffffffffffffff167f8be0079c531659141344cd1fd0a4f28419497f9722a3daafe3b4186f6b6457e060405160405180910390a35050565b8173ffffffffffffffffffffffffffffffffffffffff168373ffffffffffffffffffffffffffffffffffffffff1614156113e0576040517f08c379a00000000000000000000000000000000000000000000000000000000081526004016113d790612a08565b60405180910390fd5b80600560008573ffffffffffffffffffffffffffffffffffffffff1673ffffffffffffffffffffffffffffffffffffffff16815260200190815260200160002060008473ffffffffffffffffffffffffffffffffffffffff1673ffffffffffffffffffffffffffffffffffffffff16815260200190815260200160002060006101000a81548160ff0219169083151502179055508173ffffffffffffffffffffffffffffffffffffffff168373ffffffffffffffffffffffffffffffffffffffff167f17307eab39ab6107e8899845ad3d59bd9653f200f220920489ca2b5937696c31836040516114d19190611cce565b60405180910390a3505050565b6114e9848484610ef6565b6114f584848484611694565b611534576040517f08c379a000000000000000000000000000000000000000000000000000000000815260040161152b90612a9a565b60405180910390fd5b50505050565b61155482826040518060200160405280600081525061182b565b5050565b606060405180602001604052806000815250905090565b60606000600161157e84611886565b01905060008167ffffffffffffffff81111561159d5761159c611f83565b5b6040519080825280601f01601f1916602001820160405280156115cf5781602001600182028036833780820191505090505b509050600082602001820190505b60011561163c578080600190039150507f3031323334353637383961626364656600000000000000000000000000000000600a86061a8153600a858161162657611625612aba565b5b04945060008514156116375761163c565b6115dd565b819350505050919050565b60008073ffffffffffffffffffffffffffffffffffffffff16611669836111f0565b73ffffffffffffffffffffffffffffffffffffffff1614159050919050565b50505050565b50505050565b60006116b58473ffffffffffffffffffffffffffffffffffffffff166119d9565b1561181e578373ffffffffffffffffffffffffffffffffffffffff1663150b7a026116de610da0565b8786866040518563ffffffff1660e01b81526004016117009493929190612b3e565b602060405180830381600087803b15801561171a57600080fd5b505af192505050801561174b57506040513d601f19601f820116820180604052508101906117489190612b9f565b60015b6117ce573d806000811461177b576040519150601f19603f3d011682016040523d82523d6000602084013e611780565b606091505b506000815114156117c6576040517f08c379a00000000000000000000000000000000000000000000000000000000081526004016117bd90612a9a565b60405180910390fd5b805181602001fd5b63150b7a0260e01b7bffffffffffffffffffffffffffffffffffffffffffffffffffffffff1916817bffffffffffffffffffffffffffffffffffffffffffffffffffffffff191614915050611823565b600190505b949350505050565b61183583836119fc565b6118426000848484611694565b611881576040517f08c379a000000000000000000000000000000000000000000000000000000000815260040161187890612a9a565b60405180910390fd5b505050565b600080600090507a184f03e93ff9f4daa797ed6e38ed64bf6a1f01000000000000000083106118e4577a184f03e93ff9f4daa797ed6e38ed64bf6a1f01000000000000000083816118da576118d9612aba565b5b0492506040810190505b6d04ee2d6d415b85acef81000000008310611921576d04ee2d6d415b85acef8100000000838161191757611916612aba565b5b0492506020810190505b662386f26fc10000831061195057662386f26fc10000838161194657611945612aba565b5b0492506010810190505b6305f5e1008310611979576305f5e100838161196f5761196e612aba565b5b0492506008810190505b612710831061199e57612710838161199457611993612aba565b5b0492506004810190505b606483106119c157606483816119b7576119b6612aba565b5b0492506002810190505b600a83106119d0576001810190505b80915050919050565b6000808273ffffffffffffffffffffffffffffffffffffffff163b119050919050565b600073ffffffffffffffffffffffffffffffffffffffff168273ffffffffffffffffffffffffffffffffffffffff161415611a6c576040517f08c379a0000000000000000000000000000000000000000000000000000000008152600401611a6390612c18565b60405180910390fd5b611a7581611647565b15611ab5576040517f08c379a0000000000000000000000000000000000000000000000000000000008152600401611aac90612c84565b60405180910390fd5b611ac3600083836001611688565b611acc81611647565b15611b0c576040517f08c379a0000000000000000000000000000000000000000000000000000000008152600401611b0390612c84565b60405180910390fd5b6001600360008473ffffffffffffffffffffffffffffffffffffffff1673ffffffffffffffffffffffffffffffffffffffff16815260200190815260200160002060008282540192505081905550816002600083815260200190815260200160002060006101000a81548173ffffffffffffffffffffffffffffffffffffffff021916908373ffffffffffffffffffffffffffffffffffffffff160217905550808273ffffffffffffffffffffffffffffffffffffffff16600073ffffffffffffffffffffffffffffffffffffffff167fddf252ad1be2c89b69c2b068fc378daa952ba7f163c4a11628f55a4df523b3ef60405160405180910390a4611c1660008383600161168e565b5050565b6000604051905090565b600080fd5b600080fd5b60007fffffffff0000000000000000000000000000000000000000000000000000000082169050919050565b611c6381611c2e565b8114611c6e57600080fd5b50565b600081359050611c8081611c5a565b92915050565b600060208284031215611c9c57611c9b611c24565b5b6000611caa84828501611c71565b91505092915050565b60008115159050919050565b611cc881611cb3565b82525050565b6000602082019050611ce36000830184611cbf565b92915050565b600081519050919050565b600082825260208201905092915050565b60005b83811015611d23578082015181840152602081019050611d08565b83811115611d32576000848401525b50505050565b6000601f19601f8301169050919050565b6000611d5482611ce9565b611d5e8185611cf4565b9350611d6e818560208601611d05565b611d7781611d38565b840191505092915050565b60006020820190508181036000830152611d9c8184611d49565b905092915050565b6000819050919050565b611db781611da4565b8114611dc257600080fd5b50565b600081359050611dd481611dae565b92915050565b600060208284031215611df057611def611c24565b5b6000611dfe84828501611dc5565b91505092915050565b600073ffffffffffffffffffffffffffffffffffffffff82169050919050565b6000611e3282611e07565b9050919050565b611e4281611e27565b82525050565b6000602082019050611e5d6000830184611e39565b92915050565b611e6c81611e27565b8114611e7757600080fd5b50565b600081359050611e8981611e63565b92915050565b60008060408385031215611ea657611ea5611c24565b5b6000611eb485828601611e7a565b9250506020611ec585828601611dc5565b9150509250929050565b600080600060608486031215611ee857611ee7611c24565b5b6000611ef686828701611e7a565b9350506020611f0786828701611e7a565b9250506040611f1886828701611dc5565b9150509250925092565b600060208284031215611f3857611f37611c24565b5b6000611f4684828501611e7a565b91505092915050565b611f5881611da4565b82525050565b6000602082019050611f736000830184611f4f565b92915050565b600080fd5b600080fd5b7f4e487b7100000000000000000000000000000000000000000000000000000000600052604160045260246000fd5b611fbb82611d38565b810181811067ffffffffffffffff82111715611fda57611fd9611f83565b5b80604052505050565b6000611fed611c1a565b9050611ff98282611fb2565b919050565b600067ffffffffffffffff82111561201957612018611f83565b5b61202282611d38565b9050602081019050919050565b82818337600083830152505050565b600061205161204c84611ffe565b611fe3565b90508281526020810184848401111561206d5761206c611f7e565b5b61207884828561202f565b509392505050565b600082601f83011261209557612094611f79565b5b81356120a584826020860161203e565b91505092915050565b6000602082840312156120c4576120c3611c24565b5b600082013567ffffffffffffffff8111156120e2576120e1611c29565b5b6120ee84828501612080565b91505092915050565b61210081611cb3565b811461210b57600080fd5b50565b60008135905061211d816120f7565b92915050565b6000806040838503121561213a57612139611c24565b5b600061214885828601611e7a565b92505060206121598582860161210e565b9150509250929050565b600067ffffffffffffffff82111561217e5761217d611f83565b5b61218782611d38565b9050602081019050919050565b60006121a76121a284612163565b611fe3565b9050828152602081018484840111156121c3576121c2611f7e565b5b6121ce84828561202f565b509392505050565b600082601f8301126121eb576121ea611f79565b5b81356121fb848260208601612194565b91505092915050565b6000806000806080858703121561221e5761221d611c24565b5b600061222c87828801611e7a565b945050602061223d87828801611e7a565b935050604061224e87828801611dc5565b925050606085013567ffffffffffffffff81111561226f5761226e611c29565b5b61227b878288016121d6565b91505092959194509250565b6000806000606084860312156122a05761229f611c24565b5b60006122ae86828701611e7a565b935050602084013567ffffffffffffffff8111156122cf576122ce611c29565b5b6122db86828701612080565b92505060406122ec86828701611dc5565b9150509250925092565b6000806040838503121561230d5761230c611c24565b5b600061231b85828601611e7a565b925050602061232c85828601611e7a565b9150509250929050565b7f4e487b7100000000000000000000000000000000000000000000000000000000600052602260045260246000fd5b6000600282049050600182168061237d57607f821691505b6020821081141561239157612390612336565b5b50919050565b7f4552433732313a20617070726f76616c20746f2063757272656e74206f776e6560008201527f7200000000000000000000000000000000000000000000000000000000000000602082015250565b60006123f3602183611cf4565b91506123fe82612397565b604082019050919050565b60006020820190508181036000830152612422816123e6565b9050919050565b7f4552433732313a20617070726f76652063616c6c6572206973206e6f7420746f60008201527f6b656e206f776e6572206f7220617070726f76656420666f7220616c6c000000602082015250565b6000612485603d83611cf4565b915061249082612429565b604082019050919050565b600060208201905081810360008301526124b481612478565b9050919050565b7f4552433732313a2063616c6c6572206973206e6f7420746f6b656e206f776e6560008201527f72206f7220617070726f76656400000000000000000000000000000000000000602082015250565b6000612517602d83611cf4565b9150612522826124bb565b604082019050919050565b600060208201905081810360008301526125468161250a565b9050919050565b7f4552433732313a20696e76616c696420746f6b656e2049440000000000000000600082015250565b6000612583601883611cf4565b915061258e8261254d565b602082019050919050565b600060208201905081810360008301526125b281612576565b9050919050565b7f4552433732313a2061646472657373207a65726f206973206e6f74206120766160008201527f6c6964206f776e65720000000000000000000000000000000000000000000000602082015250565b6000612615602983611cf4565b9150612620826125b9565b604082019050919050565b6000602082019050818103600083015261264481612608565b9050919050565b600081905092915050565b600061266182611ce9565b61266b818561264b565b935061267b818560208601611d05565b80840191505092915050565b60006126938284612656565b915081905092915050565b7f4f6e6c79206d696e7420616464726573732063616e206d696e74000000000000600082015250565b60006126d4601a83611cf4565b91506126df8261269e565b602082019050919050565b60006020820190508181036000830152612703816126c7565b9050919050565b7f4e756d62657220616c7265616479206578697374730000000000000000000000600082015250565b6000612740601583611cf4565b915061274b8261270a565b602082019050919050565b6000602082019050818103600083015261276f81612733565b9050919050565b60006127828285612656565b915061278e8284612656565b91508190509392505050565b7f4f776e61626c653a206e6577206f776e657220697320746865207a65726f206160008201527f6464726573730000000000000000000000000000000000000000000000000000602082015250565b60006127f6602683611cf4565b91506128018261279a565b604082019050919050565b60006020820190508181036000830152612825816127e9565b9050919050565b7f4552433732313a207472616e736665722066726f6d20696e636f72726563742060008201527f6f776e6572000000000000000000000000000000000000000000000000000000602082015250565b6000612888602583611cf4565b91506128938261282c565b604082019050919050565b600060208201905081810360008301526128b78161287b565b9050919050565b7f4552433732313a207472616e7366657220746f20746865207a65726f2061646460008201527f7265737300000000000000000000000000000000000000000000000000000000602082015250565b600061291a602483611cf4565b9150612925826128be565b604082019050919050565b600060208201905081810360008301526129498161290d565b9050919050565b7f4f776e61626c653a2063616c6c6572206973206e6f7420746865206f776e6572600082015250565b6000612986602083611cf4565b915061299182612950565b602082019050919050565b600060208201905081810360008301526129b581612979565b9050919050565b7f4552433732313a20617070726f766520746f2063616c6c657200000000000000600082015250565b60006129f2601983611cf4565b91506129fd826129bc565b602082019050919050565b60006020820190508181036000830152612a21816129e5565b9050919050565b7f4552433732313a207472616e7366657220746f206e6f6e20455243373231526560008201527f63656976657220696d706c656d656e7465720000000000000000000000000000602082015250565b6000612a84603283611cf4565b9150612a8f82612a28565b604082019050919050565b60006020820190508181036000830152612ab381612a77565b9050919050565b7f4e487b7100000000000000000000000000000000000000000000000000000000600052601260045260246000fd5b600081519050919050565b600082825260208201905092915050565b6000612b1082612ae9565b612b1a8185612af4565b9350612b2a818560208601611d05565b612b3381611d38565b840191505092915050565b6000608082019050612b536000830187611e39565b612b606020830186611e39565b612b6d6040830185611f4f565b8181036060830152612b7f8184612b05565b905095945050505050565b600081519050612b9981611c5a565b92915050565b600060208284031215612bb557612bb4611c24565b5b6000612bc384828501612b8a565b91505092915050565b7f4552433732313a206d696e7420746f20746865207a65726f2061646472657373600082015250565b6000612c02602083611cf4565b9150612c0d82612bcc565b602082019050919050565b60006020820190508181036000830152612c3181612bf5565b9050919050565b7f4552433732313a20746f6b656e20616c7265616479206d696e74656400000000600082015250565b6000612c6e601c83611cf4565b9150612c7982612c38565b602082019050919050565b60006020820190508181036000830152612c9d81612c61565b905091905056fea26469706673582212207126ec8644ef875cd94de98065f402b2ff3e416705a7d92e82ad73774cc2129464736f6c63430008090033",
  "linkReferences": {},
  "deployedLinkReferences": {}
}